{
  "_format": "hh-sol-artifact-1",
  "contractName": "Web3RSVP",
  "sourceName": "contracts/Web3RSVP.sol",
  "abi": [
    {
      "anonymous": false,
      "inputs": [
        {
          "indexed": false,
          "internalType": "bytes32",
          "name": "eventID",
          "type": "bytes32"
        },
        {
          "indexed": false,
          "internalType": "address",
          "name": "attendeeAddress",
          "type": "address"
        }
      ],
      "name": "ConfirmedAttendee",
      "type": "event"
    },
    {
      "anonymous": false,
      "inputs": [
        {
          "indexed": false,
          "internalType": "bytes32",
          "name": "eventID",
          "type": "bytes32"
        }
      ],
      "name": "DepositsPaidOut",
      "type": "event"
    },
    {
      "anonymous": false,
      "inputs": [
        {
          "indexed": false,
          "internalType": "bytes32",
          "name": "eventID",
          "type": "bytes32"
        },
        {
          "indexed": false,
          "internalType": "address",
          "name": "creatorAddress",
          "type": "address"
        },
        {
          "indexed": false,
          "internalType": "uint256",
          "name": "eventTimestamp",
          "type": "uint256"
        },
        {
          "indexed": false,
          "internalType": "uint256",
          "name": "maxCapacity",
          "type": "uint256"
        },
        {
          "indexed": false,
          "internalType": "uint256",
          "name": "deposit",
          "type": "uint256"
        },
        {
          "indexed": false,
          "internalType": "string",
          "name": "eventDataCID",
          "type": "string"
        }
      ],
      "name": "NewEventCreated",
      "type": "event"
    },
    {
      "anonymous": false,
      "inputs": [
        {
          "indexed": false,
          "internalType": "bytes32",
          "name": "eventID",
          "type": "bytes32"
        },
        {
          "indexed": false,
          "internalType": "address",
          "name": "attendeeAddress",
          "type": "address"
        }
      ],
      "name": "NewRSVP",
      "type": "event"
    },
    {
      "inputs": [
        {
          "internalType": "bytes32",
          "name": "eventId",
          "type": "bytes32"
        }
      ],
      "name": "confirmAllAttendees",
      "outputs": [],
      "stateMutability": "nonpayable",
      "type": "function"
    },
    {
      "inputs": [
        {
          "internalType": "bytes32",
          "name": "eventId",
          "type": "bytes32"
        },
        {
          "internalType": "address",
          "name": "attendee",
          "type": "address"
        }
      ],
      "name": "confirmAttendee",
      "outputs": [],
      "stateMutability": "nonpayable",
      "type": "function"
    },
    {
      "inputs": [
        {
          "internalType": "uint256",
          "name": "eventTimestamp",
          "type": "uint256"
        },
        {
          "internalType": "uint256",
          "name": "deposit",
          "type": "uint256"
        },
        {
          "internalType": "uint256",
          "name": "maxCapacity",
          "type": "uint256"
        },
        {
          "internalType": "string",
          "name": "eventDataCID",
          "type": "string"
        }
      ],
      "name": "createNewEvent",
      "outputs": [],
      "stateMutability": "nonpayable",
      "type": "function"
    },
    {
      "inputs": [
        {
          "internalType": "bytes32",
          "name": "eventId",
          "type": "bytes32"
        }
      ],
      "name": "createNewRSVP",
      "outputs": [],
      "stateMutability": "payable",
      "type": "function"
    },
    {
      "inputs": [
        {
          "internalType": "bytes32",
          "name": "",
          "type": "bytes32"
        }
      ],
      "name": "idToEvent",
      "outputs": [
        {
          "internalType": "bytes32",
          "name": "eventId",
          "type": "bytes32"
        },
        {
          "internalType": "string",
          "name": "eventDataCID",
          "type": "string"
        },
        {
          "internalType": "address",
          "name": "eventOwner",
          "type": "address"
        },
        {
          "internalType": "uint256",
          "name": "eventTimestamp",
          "type": "uint256"
        },
        {
          "internalType": "uint256",
          "name": "deposit",
          "type": "uint256"
        },
        {
          "internalType": "uint256",
          "name": "maxCapacity",
          "type": "uint256"
        },
        {
          "internalType": "bool",
          "name": "paidOut",
          "type": "bool"
        }
      ],
      "stateMutability": "view",
      "type": "function"
    },
    {
      "inputs": [
        {
          "internalType": "bytes32",
          "name": "eventId",
          "type": "bytes32"
        }
      ],
      "name": "withdrawUnclaimedDeposits",
      "outputs": [],
      "stateMutability": "nonpayable",
      "type": "function"
    }
  ],
  "bytecode": "0x608060405234801561001057600080fd5b506113d3806100206000396000f3fe6080604052600436106100545760003560e01c806292098c1461005957806317f0165a1461007b5780636dcdf2cd1461008e57806379747571146100ae578063909ef021146100ce578063acdbe0121461010a575b600080fd5b34801561006557600080fd5b506100796100743660046110db565b61012a565b005b610079610089366004611168565b61036e565b34801561009a57600080fd5b506100796100a9366004611181565b610560565b3480156100ba57600080fd5b506100796100c9366004611168565b6108cb565b3480156100da57600080fd5b506100ee6100e9366004611168565b610c9a565b60405161010197969594939291906111bd565b60405180910390f35b34801561011657600080fd5b50610079610125366004611168565b610d6b565b6040516bffffffffffffffffffffffff1933606090811b8216602084015230901b16603482015260488101869052606881018590526088810184905260009060a80160408051601f198184030181529181528151602092830120600081815292839052912060030154909150156101dd5760405162461bcd60e51b81526020600482015260126024820152711053149150511648149151d254d51154915160721b60448201526064015b60405180910390fd5b60608060405180610120016040528084815260200186868080601f016020809104026020016040519081016040528093929190818152602001838380828437600092018290525093855250503360208085019190915260408085018e9052606085018d9052608085018c905260a0850188905260c0850187905260e09094018390528783528281529290912083518155838301518051919361028793506001850192910190610fed565b5060408201516002820180546001600160a01b0319166001600160a01b03909216919091179055606082015160038201556080820151600482015560a0820151600582015560c082015180516102e7916006840191602090910190611071565b5060e08201518051610303916007840191602090910190611071565b5061010091909101516008909101805460ff19169115159190911790556040517f2553138c3f9c9008f266dbdbe9fc64f5b71e098d06ef714a190a65a8b9fc6bf39061035c90859033908c908b908d908c908c90611258565b60405180910390a15050505050505050565b6000818152602081905260409020600481015434146103bc5760405162461bcd60e51b815260206004820152600a60248201526909c9ea8408a9c9eaa8e960b31b60448201526064016101d4565b80600301544211156104035760405162461bcd60e51b815260206004820152601060248201526f1053149150511648121054141153915160821b60448201526064016101d4565b600581015460068201541061045a5760405162461bcd60e51b815260206004820152601f60248201527f54686973206576656e742068617320726561636865642063617061636974790060448201526064016101d4565b60005b600682015460ff821610156104f757336001600160a01b0316826006018260ff168154811061048e5761048e6112b2565b6000918252602090912001546001600160a01b031614156104e55760405162461bcd60e51b8152602060048201526011602482015270105314915051164810d3d3919254935151607a1b60448201526064016101d4565b806104ef816112de565b91505061045d565b5060068101805460018101825560009182526020918290200180546001600160a01b0319163390811790915560408051858152928301919091527fb79f4240bbdd272d98e02a5db7f0cf156e5fc000961c517670a26eeeec63ed90910160405180910390a15050565b600082815260208190526040902060028101546001600160a01b031633146105bb5760405162461bcd60e51b815260206004820152600e60248201526d1393d5081055551213d49256915160921b60448201526064016101d4565b6000805b600683015460ff8216101561064d57836001600160a01b0316836006018260ff16815481106105f0576105f06112b2565b6000918252602090912001546001600160a01b0316141561063b57826006018160ff1681548110610623576106236112b2565b6000918252602090912001546001600160a01b031691505b80610645816112de565b9150506105bf565b50826001600160a01b0316816001600160a01b0316146106a45760405162461bcd60e51b81526020600482015260126024820152714e4f205253565020544f20434f4e4649524d60701b60448201526064016101d4565b60005b600783015460ff8216101561073f57836001600160a01b0316836007018260ff16815481106106d8576106d86112b2565b6000918252602090912001546001600160a01b0316141561072d5760405162461bcd60e51b815260206004820152600f60248201526e105314915051164810d31052535151608a1b60448201526064016101d4565b80610737816112de565b9150506106a7565b50600882015460ff16156107885760405162461bcd60e51b815260206004820152601060248201526f1053149150511648141052510813d55560821b60448201526064016101d4565b6007820180546001810182556000918252602082200180546001600160a01b0319166001600160a01b03861690811790915560048401546040518381818185875af1925050503d80600081146107fa576040519150601f19603f3d011682016040523d82523d6000602084013e6107ff565b606091505b505090508061083e578260070180548061081b5761081b6112fe565b600082815260209020810160001990810180546001600160a01b03191690550190555b806108825760405162461bcd60e51b81526020600482015260146024820152732330b4b632b2103a379039b2b7321022ba3432b960611b60448201526064016101d4565b604080518681526001600160a01b03861660208201527ff8d1583a733d83bdd3ef5464129d0a95a36d62b382d31c6d0467a61f4264381b91015b60405180910390a15050505050565b6000806000838152602001908152602001600020604051806101200160405290816000820154815260200160018201805461090590611314565b80601f016020809104026020016040519081016040528092919081815260200182805461093190611314565b801561097e5780601f106109535761010080835404028352916020019161097e565b820191906000526020600020905b81548152906001019060200180831161096157829003601f168201915b505050505081526020016002820160009054906101000a90046001600160a01b03166001600160a01b03166001600160a01b0316815260200160038201548152602001600482015481526020016005820154815260200160068201805480602002602001604051908101604052809291908181526020018280548015610a2d57602002820191906000526020600020905b81546001600160a01b03168152600190910190602001808311610a0f575b5050505050815260200160078201805480602002602001604051908101604052809291908181526020018280548015610a8f57602002820191906000526020600020905b81546001600160a01b03168152600190910190602001808311610a71575b50505091835250506008919091015460ff16151560209091015261010081015190915015610aee5760405162461bcd60e51b815260206004820152600c60248201526b10531491505116481410525160a21b60448201526064016101d4565b6060810151610b009062093a8061134f565b421015610b3b5760405162461bcd60e51b8152602060048201526009602482015268544f4f204541524c5960b81b60448201526064016101d4565b80604001516001600160a01b0316336001600160a01b031614610b965760405162461bcd60e51b815260206004820152601360248201527226aaa9aa1021229022ab22a72a1027aba722a960691b60448201526064016101d4565b60008160e00151518260c0015151610bae9190611367565b90506000826080015182610bc2919061137e565b6001610100850152604051909150600090339083908381818185875af1925050503d8060008114610c0f576040519150601f19603f3d011682016040523d82523d6000602084013e610c14565b606091505b5050905080610c265760006101008501525b80610c6a5760405162461bcd60e51b81526020600482015260146024820152732330b4b632b2103a379039b2b7321022ba3432b960611b60448201526064016101d4565b6040518581527f393073ea1365f611c3d2f240c992960d2b99dc81715555d3fc40fc55ba80af9c906020016108bc565b60006020819052908152604090208054600182018054919291610cbc90611314565b80601f0160208091040260200160405190810160405280929190818152602001828054610ce890611314565b8015610d355780601f10610d0a57610100808354040283529160200191610d35565b820191906000526020600020905b815481529060010190602001808311610d1857829003601f168201915b505050600284015460038501546004860154600587015460089097015495966001600160a01b0390931695919450925060ff1687565b60008060008381526020019081526020016000206040518061012001604052908160008201548152602001600182018054610da590611314565b80601f0160208091040260200160405190810160405280929190818152602001828054610dd190611314565b8015610e1e5780601f10610df357610100808354040283529160200191610e1e565b820191906000526020600020905b815481529060010190602001808311610e0157829003601f168201915b505050505081526020016002820160009054906101000a90046001600160a01b03166001600160a01b03166001600160a01b0316815260200160038201548152602001600482015481526020016005820154815260200160068201805480602002602001604051908101604052809291908181526020018280548015610ecd57602002820191906000526020600020905b81546001600160a01b03168152600190910190602001808311610eaf575b5050505050815260200160078201805480602002602001604051908101604052809291908181526020018280548015610f2f57602002820191906000526020600020905b81546001600160a01b03168152600190910190602001808311610f11575b50505091835250506008919091015460ff16151560209091015260408101519091506001600160a01b03163314610f995760405162461bcd60e51b815260206004820152600e60248201526d1393d5081055551213d49256915160921b60448201526064016101d4565b60005b8160c00151518160ff161015610fe857610fd6838360c001518360ff1681518110610fc957610fc96112b2565b6020026020010151610560565b80610fe0816112de565b915050610f9c565b505050565b828054610ff990611314565b90600052602060002090601f01602090048101928261101b5760008555611061565b82601f1061103457805160ff1916838001178555611061565b82800160010185558215611061579182015b82811115611061578251825591602001919060010190611046565b5061106d9291506110c6565b5090565b828054828255906000526020600020908101928215611061579160200282015b8281111561106157825182546001600160a01b0319166001600160a01b03909116178255602090920191600190910190611091565b5b8082111561106d57600081556001016110c7565b6000806000806000608086880312156110f357600080fd5b853594506020860135935060408601359250606086013567ffffffffffffffff8082111561112057600080fd5b818801915088601f83011261113457600080fd5b81358181111561114357600080fd5b89602082850101111561115557600080fd5b9699959850939650602001949392505050565b60006020828403121561117a57600080fd5b5035919050565b6000806040838503121561119457600080fd5b8235915060208301356001600160a01b03811681146111b257600080fd5b809150509250929050565b8781526000602060e08184015288518060e085015260005b818110156111f2578a8101830151858201610100015282016111d5565b8181111561120557600061010083870101525b50601f01601f1916830161010001915061122c905060408301886001600160a01b03169052565b8560608301528460808301528360a083015261124c60c083018415159052565b98975050505050505050565b87815260018060a01b038716602082015285604082015284606082015283608082015260c060a08201528160c0820152818360e0830137600081830160e090810191909152601f909201601f191601019695505050505050565b634e487b7160e01b600052603260045260246000fd5b634e487b7160e01b600052601160045260246000fd5b600060ff821660ff8114156112f5576112f56112c8565b60010192915050565b634e487b7160e01b600052603160045260246000fd5b600181811c9082168061132857607f821691505b6020821081141561134957634e487b7160e01b600052602260045260246000fd5b50919050565b60008219821115611362576113626112c8565b500190565b600082821015611379576113796112c8565b500390565b6000816000190483118215151615611398576113986112c8565b50029056fea264697066735822122013024fae521242122e099a495e8f5c66a95ff108b2913b0d4df421bfeb9f6e9364736f6c63430008090033",
  "linkReferences": {},
  "deployedLinkReferences": {}
}